{
    "_format": "hh-sol-artifact-1",
    "contractName": "Escrow",
    "sourceName": "contracts/Escrow.sol",
    "abi": [
        {
            "inputs": [
                {
                    "internalType": "address",
                    "name": "_client",
                    "type": "address"
                },
                {
                    "internalType": "address",
                    "name": "_freelancer",
                    "type": "address"
                },
                {
                    "internalType": "address",
                    "name": "_arbiter",
                    "type": "address"
                },
                {
                    "internalType": "contract FreelanceToken",
                    "name": "_token",
                    "type": "address"
                },
                {
                    "internalType": "uint256",
                    "name": "_submissionPeriodInDays",
                    "type": "uint256"
                }
            ],
            "stateMutability": "nonpayable",
            "type": "constructor"
        },
        {
            "anonymous": false,
            "inputs": [
                {
                    "indexed": true,
                    "internalType": "address",
                    "name": "client",
                    "type": "address"
                }
            ],
            "name": "DeliveryConfirmed",
            "type": "event"
        },
        {
            "anonymous": false,
            "inputs": [
                {
                    "indexed": true,
                    "internalType": "address",
                    "name": "client",
                    "type": "address"
                },
                {
                    "indexed": false,
                    "internalType": "uint256",
                    "name": "amount",
                    "type": "uint256"
                }
            ],
            "name": "Deposit",
            "type": "event"
        },
        {
            "anonymous": false,
            "inputs": [
                {
                    "indexed": true,
                    "internalType": "address",
                    "name": "freelancer",
                    "type": "address"
                },
                {
                    "indexed": false,
                    "internalType": "uint256",
                    "name": "amount",
                    "type": "uint256"
                }
            ],
            "name": "FundsReleased",
            "type": "event"
        },
        {
            "anonymous": false,
            "inputs": [
                {
                    "indexed": true,
                    "internalType": "address",
                    "name": "arbiter",
                    "type": "address"
                },
                {
                    "indexed": true,
                    "internalType": "address",
                    "name": "client",
                    "type": "address"
                },
                {
                    "indexed": false,
                    "internalType": "uint256",
                    "name": "amount",
                    "type": "uint256"
                }
            ],
            "name": "RefundIssued",
            "type": "event"
        },
        {
            "anonymous": false,
            "inputs": [
                {
                    "indexed": true,
                    "internalType": "address",
                    "name": "freelancer",
                    "type": "address"
                },
                {
                    "indexed": false,
                    "internalType": "string",
                    "name": "fileUrl",
                    "type": "string"
                }
            ],
            "name": "WorkSubmitted",
            "type": "event"
        },
        {
            "inputs": [],
            "name": "amount",
            "outputs": [
                {
                    "internalType": "uint256",
                    "name": "",
                    "type": "uint256"
                }
            ],
            "stateMutability": "view",
            "type": "function"
        },
        {
            "inputs": [],
            "name": "arbiter",
            "outputs": [
                {
                    "internalType": "address",
                    "name": "",
                    "type": "address"
                }
            ],
            "stateMutability": "view",
            "type": "function"
        },
        {
            "inputs": [],
            "name": "client",
            "outputs": [
                {
                    "internalType": "address",
                    "name": "",
                    "type": "address"
                }
            ],
            "stateMutability": "view",
            "type": "function"
        },
        {
            "inputs": [],
            "name": "clientRating",
            "outputs": [
                {
                    "internalType": "uint256",
                    "name": "",
                    "type": "uint256"
                }
            ],
            "stateMutability": "view",
            "type": "function"
        },
        {
            "inputs": [],
            "name": "clientReview",
            "outputs": [
                {
                    "internalType": "string",
                    "name": "",
                    "type": "string"
                }
            ],
            "stateMutability": "view",
            "type": "function"
        },
        {
            "inputs": [],
            "name": "confirmDelivery",
            "outputs": [],
            "stateMutability": "nonpayable",
            "type": "function"
        },
        {
            "inputs": [],
            "name": "currentState",
            "outputs": [
                {
                    "internalType": "enum Escrow.State",
                    "name": "",
                    "type": "uint8"
                }
            ],
            "stateMutability": "view",
            "type": "function"
        },
        {
            "inputs": [
                {
                    "internalType": "uint256",
                    "name": "_amount",
                    "type": "uint256"
                }
            ],
            "name": "deposit",
            "outputs": [],
            "stateMutability": "nonpayable",
            "type": "function"
        },
        {
            "inputs": [],
            "name": "dispute",
            "outputs": [
                {
                    "internalType": "bool",
                    "name": "raised",
                    "type": "bool"
                },
                {
                    "internalType": "string",
                    "name": "reason",
                    "type": "string"
                },
                {
                    "internalType": "string",
                    "name": "evidence",
                    "type": "string"
                },
                {
                    "internalType": "address",
                    "name": "resolver",
                    "type": "address"
                }
            ],
            "stateMutability": "view",
            "type": "function"
        },
        {
            "inputs": [],
            "name": "disputeRaised",
            "outputs": [
                {
                    "internalType": "bool",
                    "name": "",
                    "type": "bool"
                }
            ],
            "stateMutability": "view",
            "type": "function"
        },
        {
            "inputs": [],
            "name": "fileHash",
            "outputs": [
                {
                    "internalType": "bytes32",
                    "name": "",
                    "type": "bytes32"
                }
            ],
            "stateMutability": "view",
            "type": "function"
        },
        {
            "inputs": [],
            "name": "fileUrl",
            "outputs": [
                {
                    "internalType": "string",
                    "name": "",
                    "type": "string"
                }
            ],
            "stateMutability": "view",
            "type": "function"
        },
        {
            "inputs": [],
            "name": "freelancer",
            "outputs": [
                {
                    "internalType": "address",
                    "name": "",
                    "type": "address"
                }
            ],
            "stateMutability": "view",
            "type": "function"
        },
        {
            "inputs": [],
            "name": "freelancerRating",
            "outputs": [
                {
                    "internalType": "uint256",
                    "name": "",
                    "type": "uint256"
                }
            ],
            "stateMutability": "view",
            "type": "function"
        },
        {
            "inputs": [],
            "name": "freelancerReview",
            "outputs": [
                {
                    "internalType": "string",
                    "name": "",
                    "type": "string"
                }
            ],
            "stateMutability": "view",
            "type": "function"
        },
        {
            "inputs": [],
            "name": "getClientRating",
            "outputs": [
                {
                    "internalType": "uint256",
                    "name": "",
                    "type": "uint256"
                },
                {
                    "internalType": "string",
                    "name": "",
                    "type": "string"
                }
            ],
            "stateMutability": "view",
            "type": "function"
        },
        {
            "inputs": [],
            "name": "getDisputeDetails",
            "outputs": [
                {
                    "internalType": "bool",
                    "name": "",
                    "type": "bool"
                },
                {
                    "internalType": "string",
                    "name": "",
                    "type": "string"
                },
                {
                    "internalType": "string",
                    "name": "",
                    "type": "string"
                },
                {
                    "internalType": "address",
                    "name": "",
                    "type": "address"
                }
            ],
            "stateMutability": "view",
            "type": "function"
        },
        {
            "inputs": [],
            "name": "getFileDetails",
            "outputs": [
                {
                    "internalType": "string",
                    "name": "",
                    "type": "string"
                },
                {
                    "internalType": "bytes32",
                    "name": "",
                    "type": "bytes32"
                }
            ],
            "stateMutability": "view",
            "type": "function"
        },
        {
            "inputs": [],
            "name": "getFreelancerRating",
            "outputs": [
                {
                    "internalType": "uint256",
                    "name": "",
                    "type": "uint256"
                },
                {
                    "internalType": "string",
                    "name": "",
                    "type": "string"
                }
            ],
            "stateMutability": "view",
            "type": "function"
        },
        {
            "inputs": [],
            "name": "getRemainingTime",
            "outputs": [
                {
                    "internalType": "uint256",
                    "name": "",
                    "type": "uint256"
                }
            ],
            "stateMutability": "view",
            "type": "function"
        },
        {
            "inputs": [
                {
                    "internalType": "string",
                    "name": "_reason",
                    "type": "string"
                },
                {
                    "internalType": "string",
                    "name": "_evidence",
                    "type": "string"
                }
            ],
            "name": "raiseDispute",
            "outputs": [],
            "stateMutability": "nonpayable",
            "type": "function"
        },
        {
            "inputs": [
                {
                    "internalType": "uint256",
                    "name": "_rating",
                    "type": "uint256"
                },
                {
                    "internalType": "string",
                    "name": "_review",
                    "type": "string"
                }
            ],
            "name": "rateClient",
            "outputs": [],
            "stateMutability": "nonpayable",
            "type": "function"
        },
        {
            "inputs": [
                {
                    "internalType": "uint256",
                    "name": "_rating",
                    "type": "uint256"
                },
                {
                    "internalType": "string",
                    "name": "_review",
                    "type": "string"
                }
            ],
            "name": "rateFreelancer",
            "outputs": [],
            "stateMutability": "nonpayable",
            "type": "function"
        },
        {
            "inputs": [
                {
                    "internalType": "bool",
                    "name": "_isClientCorrect",
                    "type": "bool"
                }
            ],
            "name": "resolveDispute",
            "outputs": [],
            "stateMutability": "nonpayable",
            "type": "function"
        },
        {
            "inputs": [],
            "name": "submissionDeadline",
            "outputs": [
                {
                    "internalType": "uint256",
                    "name": "",
                    "type": "uint256"
                }
            ],
            "stateMutability": "view",
            "type": "function"
        },
        {
            "inputs": [
                {
                    "internalType": "string",
                    "name": "_fileUrl",
                    "type": "string"
                }
            ],
            "name": "submitWork",
            "outputs": [],
            "stateMutability": "nonpayable",
            "type": "function"
        },
        {
            "inputs": [],
            "name": "token",
            "outputs": [
                {
                    "internalType": "contract FreelanceToken",
                    "name": "",
                    "type": "address"
                }
            ],
            "stateMutability": "view",
            "type": "function"
        }
    ],
    "bytecode": "0x60806040523480156200001157600080fd5b50604051620035ab380380620035ab833981810160405281019062000037919062000281565b846000806101000a81548173ffffffffffffffffffffffffffffffffffffffff021916908373ffffffffffffffffffffffffffffffffffffffff16021790555083600160006101000a81548173ffffffffffffffffffffffffffffffffffffffff021916908373ffffffffffffffffffffffffffffffffffffffff16021790555082600260006101000a81548173ffffffffffffffffffffffffffffffffffffffff021916908373ffffffffffffffffffffffffffffffffffffffff16021790555081600360006101000a81548173ffffffffffffffffffffffffffffffffffffffff021916908373ffffffffffffffffffffffffffffffffffffffff16021790555062015180816200014b919062000338565b4262000158919062000383565b600c819055506000600d60006101000a81548160ff02191690836003811115620001875762000186620003be565b5b02179055505050505050620003ed565b600080fd5b600073ffffffffffffffffffffffffffffffffffffffff82169050919050565b6000620001c9826200019c565b9050919050565b620001db81620001bc565b8114620001e757600080fd5b50565b600081519050620001fb81620001d0565b92915050565b60006200020e82620001bc565b9050919050565b620002208162000201565b81146200022c57600080fd5b50565b600081519050620002408162000215565b92915050565b6000819050919050565b6200025b8162000246565b81146200026757600080fd5b50565b6000815190506200027b8162000250565b92915050565b600080600080600060a08688031215620002a0576200029f62000197565b5b6000620002b088828901620001ea565b9550506020620002c388828901620001ea565b9450506040620002d688828901620001ea565b9350506060620002e9888289016200022f565b9250506080620002fc888289016200026a565b9150509295509295909350565b7f4e487b7100000000000000000000000000000000000000000000000000000000600052601160045260246000fd5b6000620003458262000246565b9150620003528362000246565b9250828202620003628162000246565b915082820484148315176200037c576200037b62000309565b5b5092915050565b6000620003908262000246565b91506200039d8362000246565b9250828201905080821115620003b857620003b762000309565b5b92915050565b7f4e487b7100000000000000000000000000000000000000000000000000000000600052602160045260246000fd5b6131ae80620003fd6000396000f3fe608060405234801561001057600080fd5b50600436106101a85760003560e01c8063a5cb1e54116100f9578063dac4fa6311610097578063f240f7c311610071578063f240f7c314610445578063f9c5511514610466578063fc0c546a14610484578063fe25e00a146104a2576101a8565b8063dac4fa63146103eb578063e7410c0a14610409578063efb98bcf14610427576101a8565b8063af1b4fbf116100d3578063af1b4fbf14610373578063b6b55f2514610392578063c00a8bff146103ae578063ce5b7417146103cc576101a8565b8063a5cb1e541461031a578063a952627214610336578063aa8c217c14610355576101a8565b80634dcbf8c0116101665780635e10177b116101405780635e10177b146102ba57806389e1e82a146102c457806397493f2f146102e0578063a37dda2c146102fc576101a8565b80634dcbf8c01461025d5780635b4437d01461027b5780635bf8ae411461029c576101a8565b80624422eb146101ad578063095da7f6146101cb5780630c3f6acf146101e7578063109e94cf1461020557806324c8c698146102235780633085e2a514610241575b600080fd5b6101b56104c0565b6040516101c29190611e98565b60405180910390f35b6101e560048036038101906101e0919061200d565b6104d3565b005b6101ef610788565b6040516101fc91906120cd565b60405180910390f35b61020d61079b565b60405161021a9190612129565b60405180910390f35b61022b6107bf565b604051610238919061215d565b60405180910390f35b61025b600480360381019061025691906121ae565b6107c5565b005b610265610974565b6040516102729190612289565b60405180910390f35b610283610a02565b60405161029394939291906122ab565b60405180910390f35b6102a4610b72565b6040516102b19190612289565b60405180910390f35b6102c2610c00565b005b6102de60048036038101906102d9919061232a565b610e2b565b005b6102fa60048036038101906102f59190612357565b6111ea565b005b6103046113ee565b6040516103119190612129565b60405180910390f35b610334600480360381019061032f91906121ae565b611414565b005b61033e6115c1565b60405161034c9291906123cf565b60405180910390f35b61035d61165e565b60405161036a919061240e565b60405180910390f35b61037b611664565b604051610389929190612429565b60405180910390f35b6103ac60048036038101906103a79190612459565b611701565b005b6103b66119b4565b6040516103c3919061240e565b60405180910390f35b6103d46119ba565b6040516103e2929190612429565b60405180910390f35b6103f3611a57565b6040516104009190612289565b60405180910390f35b610411611ae5565b60405161041e919061240e565b60405180910390f35b61042f611aeb565b60405161043c919061240e565b60405180910390f35b61044d611b21565b60405161045d94939291906122ab565b60405180910390f35b61046e611c7c565b60405161047b919061240e565b60405180910390f35b61048c611c82565b60405161049991906124e5565b60405180910390f35b6104aa611ca8565b6040516104b79190612129565b60405180910390f35b600760009054906101000a900460ff1681565b600160009054906101000a900473ffffffffffffffffffffffffffffffffffffffff1673ffffffffffffffffffffffffffffffffffffffff163373ffffffffffffffffffffffffffffffffffffffff1614610563576040517f08c379a000000000000000000000000000000000000000000000000000000000815260040161055a90612572565b60405180910390fd5b600180600381111561057857610577612056565b5b600d60009054906101000a900460ff16600381111561059a57610599612056565b5b146105da576040517f08c379a00000000000000000000000000000000000000000000000000000000081526004016105d1906125de565b60405180910390fd5b600c5442111561061f576040517f08c379a00000000000000000000000000000000000000000000000000000000081526004016106169061264a565b60405180910390fd5b816005908161062e919061286c565b50600282604051602001610642919061297a565b60405160208183030381529060405260405161065e91906129d8565b602060405180830381855afa15801561067b573d6000803e3d6000fd5b5050506040513d601f19601f8201168201806040525081019061069e9190612a1b565b600681905550600160009054906101000a900473ffffffffffffffffffffffffffffffffffffffff1673ffffffffffffffffffffffffffffffffffffffff167f7222637ff073e2f9674b0a63b756fa166f70893c7ab038c22845a6b4dbbc8abf8360405161070c9190612289565b60405180910390a2600160009054906101000a900473ffffffffffffffffffffffffffffffffffffffff1673ffffffffffffffffffffffffffffffffffffffff167f7222637ff073e2f9674b0a63b756fa166f70893c7ab038c22845a6b4dbbc8abf8360405161077c9190612289565b60405180910390a25050565b600d60009054906101000a900460ff1681565b60008054906101000a900473ffffffffffffffffffffffffffffffffffffffff1681565b60065481565b600160009054906101000a900473ffffffffffffffffffffffffffffffffffffffff1673ffffffffffffffffffffffffffffffffffffffff163373ffffffffffffffffffffffffffffffffffffffff1614610855576040517f08c379a000000000000000000000000000000000000000000000000000000000815260040161084c90612572565b60405180910390fd5b6002600381111561086957610868612056565b5b600d60009054906101000a900460ff16600381111561088b5761088a612056565b5b14806108c957506003808111156108a5576108a4612056565b5b600d60009054906101000a900460ff1660038111156108c7576108c6612056565b5b145b610908576040517f08c379a00000000000000000000000000000000000000000000000000000000081526004016108ff90612a94565b60405180910390fd5b6001821015801561091a575060058211155b610959576040517f08c379a000000000000000000000000000000000000000000000000000000000815260040161095090612b00565b60405180910390fd5b8160088190555080600a908161096f919061286c565b505050565b6005805461098190612699565b80601f01602080910402602001604051908101604052809291908181526020018280546109ad90612699565b80156109fa5780601f106109cf576101008083540402835291602001916109fa565b820191906000526020600020905b8154815290600101906020018083116109dd57829003601f168201915b505050505081565b60006060806000600e60000160009054906101000a900460ff16600e600101600e600201600e60030160009054906101000a900473ffffffffffffffffffffffffffffffffffffffff16828054610a5890612699565b80601f0160208091040260200160405190810160405280929190818152602001828054610a8490612699565b8015610ad15780601f10610aa657610100808354040283529160200191610ad1565b820191906000526020600020905b815481529060010190602001808311610ab457829003601f168201915b50505050509250818054610ae490612699565b80601f0160208091040260200160405190810160405280929190818152602001828054610b1090612699565b8015610b5d5780601f10610b3257610100808354040283529160200191610b5d565b820191906000526020600020905b815481529060010190602001808311610b4057829003601f168201915b50505050509150935093509350935090919293565b600a8054610b7f90612699565b80601f0160208091040260200160405190810160405280929190818152602001828054610bab90612699565b8015610bf85780601f10610bcd57610100808354040283529160200191610bf8565b820191906000526020600020905b815481529060010190602001808311610bdb57829003601f168201915b505050505081565b60008054906101000a900473ffffffffffffffffffffffffffffffffffffffff1673ffffffffffffffffffffffffffffffffffffffff163373ffffffffffffffffffffffffffffffffffffffff1614610c8e576040517f08c379a0000000000000000000000000000000000000000000000000000000008152600401610c8590612b92565b60405180910390fd5b6001806003811115610ca357610ca2612056565b5b600d60009054906101000a900460ff166003811115610cc557610cc4612056565b5b14610d05576040517f08c379a0000000000000000000000000000000000000000000000000000000008152600401610cfc906125de565b60405180910390fd5b604051602001610d1490612bd8565b604051602081830303815290604052805190602001206005604051602001610d3c9190612c70565b6040516020818303038152906040528051906020012003610d92576040517f08c379a0000000000000000000000000000000000000000000000000000000008152600401610d8990612cd3565b60405180910390fd5b6002600d60006101000a81548160ff02191690836003811115610db857610db7612056565b5b0217905550610dc5611cce565b60008054906101000a900473ffffffffffffffffffffffffffffffffffffffff1673ffffffffffffffffffffffffffffffffffffffff167f7fe25e02f602b412aee7591e6643616f1f1259a4ca6a3ee3387fef583badcd0e60405160405180910390a250565b600260009054906101000a900473ffffffffffffffffffffffffffffffffffffffff1673ffffffffffffffffffffffffffffffffffffffff163373ffffffffffffffffffffffffffffffffffffffff1614610ebb576040517f08c379a0000000000000000000000000000000000000000000000000000000008152600401610eb290612d65565b60405180910390fd5b600760009054906101000a900460ff16610f0a576040517f08c379a0000000000000000000000000000000000000000000000000000000008152600401610f0190612dd1565b60405180910390fd5b600073ffffffffffffffffffffffffffffffffffffffff16600e60030160009054906101000a900473ffffffffffffffffffffffffffffffffffffffff1673ffffffffffffffffffffffffffffffffffffffff1614610f9e576040517f08c379a0000000000000000000000000000000000000000000000000000000008152600401610f9590612e3d565b60405180910390fd5b801561109757600360009054906101000a900473ffffffffffffffffffffffffffffffffffffffff1673ffffffffffffffffffffffffffffffffffffffff1663a9059cbb60008054906101000a900473ffffffffffffffffffffffffffffffffffffffff166004546040518363ffffffff1660e01b8152600401611023929190612e5d565b6020604051808303816000875af1158015611042573d6000803e3d6000fd5b505050506040513d601f19601f820116820180604052508101906110669190612e9b565b506003600d60006101000a81548160ff0219169083600381111561108d5761108c612056565b5b0217905550611188565b600360009054906101000a900473ffffffffffffffffffffffffffffffffffffffff1673ffffffffffffffffffffffffffffffffffffffff1663a9059cbb600160009054906101000a900473ffffffffffffffffffffffffffffffffffffffff166004546040518363ffffffff1660e01b8152600401611118929190612e5d565b6020604051808303816000875af1158015611137573d6000803e3d6000fd5b505050506040513d601f19601f8201168201806040525081019061115b9190612e9b565b506002600d60006101000a81548160ff0219169083600381111561118257611181612056565b5b02179055505b33600e60030160006101000a81548173ffffffffffffffffffffffffffffffffffffffff021916908373ffffffffffffffffffffffffffffffffffffffff1602179055506000600760006101000a81548160ff02191690831515021790555050565b60008054906101000a900473ffffffffffffffffffffffffffffffffffffffff1673ffffffffffffffffffffffffffffffffffffffff163373ffffffffffffffffffffffffffffffffffffffff1614806112915750600160009054906101000a900473ffffffffffffffffffffffffffffffffffffffff1673ffffffffffffffffffffffffffffffffffffffff163373ffffffffffffffffffffffffffffffffffffffff16145b6112d0576040517f08c379a00000000000000000000000000000000000000000000000000000000081526004016112c790612f3a565b60405180910390fd5b600160038111156112e4576112e3612056565b5b600d60009054906101000a900460ff16600381111561130657611305612056565b5b14611346576040517f08c379a000000000000000000000000000000000000000000000000000000000815260040161133d90612fcc565b60405180910390fd5b6001600e60000160006101000a81548160ff02191690831515021790555081600e6001019081611376919061286c565b5080600e6002019081611389919061286c565b506000600e60030160006101000a81548173ffffffffffffffffffffffffffffffffffffffff021916908373ffffffffffffffffffffffffffffffffffffffff1602179055506001600760006101000a81548160ff0219169083151502179055505050565b600160009054906101000a900473ffffffffffffffffffffffffffffffffffffffff1681565b60008054906101000a900473ffffffffffffffffffffffffffffffffffffffff1673ffffffffffffffffffffffffffffffffffffffff163373ffffffffffffffffffffffffffffffffffffffff16146114a2576040517f08c379a000000000000000000000000000000000000000000000000000000000815260040161149990612b92565b60405180910390fd5b600260038111156114b6576114b5612056565b5b600d60009054906101000a900460ff1660038111156114d8576114d7612056565b5b148061151657506003808111156114f2576114f1612056565b5b600d60009054906101000a900460ff16600381111561151457611513612056565b5b145b611555576040517f08c379a000000000000000000000000000000000000000000000000000000000815260040161154c90612a94565b60405180910390fd5b60018210158015611567575060058211155b6115a6576040517f08c379a000000000000000000000000000000000000000000000000000000000815260040161159d90612b00565b60405180910390fd5b8160098190555080600b90816115bc919061286c565b505050565b6060600060056006548180546115d690612699565b80601f016020809104026020016040519081016040528092919081815260200182805461160290612699565b801561164f5780601f106116245761010080835404028352916020019161164f565b820191906000526020600020905b81548152906001019060200180831161163257829003601f168201915b50505050509150915091509091565b60045481565b60006060600954600b80805461167990612699565b80601f01602080910402602001604051908101604052809291908181526020018280546116a590612699565b80156116f25780601f106116c7576101008083540402835291602001916116f2565b820191906000526020600020905b8154815290600101906020018083116116d557829003601f168201915b50505050509050915091509091565b60008054906101000a900473ffffffffffffffffffffffffffffffffffffffff1673ffffffffffffffffffffffffffffffffffffffff163373ffffffffffffffffffffffffffffffffffffffff161461178f576040517f08c379a000000000000000000000000000000000000000000000000000000000815260040161178690612b92565b60405180910390fd5b60008060038111156117a4576117a3612056565b5b600d60009054906101000a900460ff1660038111156117c6576117c5612056565b5b14611806576040517f08c379a00000000000000000000000000000000000000000000000000000000081526004016117fd906125de565b60405180910390fd5b60008211611849576040517f08c379a00000000000000000000000000000000000000000000000000000000081526004016118409061305e565b60405180910390fd5b81600481905550600360009054906101000a900473ffffffffffffffffffffffffffffffffffffffff1673ffffffffffffffffffffffffffffffffffffffff166323b872dd60008054906101000a900473ffffffffffffffffffffffffffffffffffffffff16306004546040518463ffffffff1660e01b81526004016118d19392919061307e565b6020604051808303816000875af11580156118f0573d6000803e3d6000fd5b505050506040513d601f19601f820116820180604052508101906119149190612e9b565b506001600d60006101000a81548160ff0219169083600381111561193b5761193a612056565b5b021790555060008054906101000a900473ffffffffffffffffffffffffffffffffffffffff1673ffffffffffffffffffffffffffffffffffffffff167fe1fffcc4923d04b559f4d29a8bfc6cda04eb5b0d3c460751c2402c5c5cc9109c6004546040516119a8919061240e565b60405180910390a25050565b60085481565b60006060600854600a8080546119cf90612699565b80601f01602080910402602001604051908101604052809291908181526020018280546119fb90612699565b8015611a485780601f10611a1d57610100808354040283529160200191611a48565b820191906000526020600020905b815481529060010190602001808311611a2b57829003601f168201915b50505050509050915091509091565b600b8054611a6490612699565b80601f0160208091040260200160405190810160405280929190818152602001828054611a9090612699565b8015611add5780601f10611ab257610100808354040283529160200191611add565b820191906000526020600020905b815481529060010190602001808311611ac057829003601f168201915b505050505081565b60095481565b6000600c544210611aff5760009050611b1e565b6201518042600c54611b1191906130e4565b611b1b9190613147565b90505b90565b600e8060000160009054906101000a900460ff1690806001018054611b4590612699565b80601f0160208091040260200160405190810160405280929190818152602001828054611b7190612699565b8015611bbe5780601f10611b9357610100808354040283529160200191611bbe565b820191906000526020600020905b815481529060010190602001808311611ba157829003601f168201915b505050505090806002018054611bd390612699565b80601f0160208091040260200160405190810160405280929190818152602001828054611bff90612699565b8015611c4c5780601f10611c2157610100808354040283529160200191611c4c565b820191906000526020600020905b815481529060010190602001808311611c2f57829003601f168201915b5050505050908060030160009054906101000a900473ffffffffffffffffffffffffffffffffffffffff16905084565b600c5481565b600360009054906101000a900473ffffffffffffffffffffffffffffffffffffffff1681565b600260009054906101000a900473ffffffffffffffffffffffffffffffffffffffff1681565b60026003811115611ce257611ce1612056565b5b600d60009054906101000a900460ff166003811115611d0457611d03612056565b5b14611d44576040517f08c379a0000000000000000000000000000000000000000000000000000000008152600401611d3b90612a94565b60405180910390fd5b600360009054906101000a900473ffffffffffffffffffffffffffffffffffffffff1673ffffffffffffffffffffffffffffffffffffffff1663a9059cbb600160009054906101000a900473ffffffffffffffffffffffffffffffffffffffff166004546040518363ffffffff1660e01b8152600401611dc5929190612e5d565b6020604051808303816000875af1158015611de4573d6000803e3d6000fd5b505050506040513d601f19601f82011682018060405250810190611e089190612e9b565b50600160009054906101000a900473ffffffffffffffffffffffffffffffffffffffff1673ffffffffffffffffffffffffffffffffffffffff167f221c08a06b07a64803b3787861a3f276212fcccb51c2e6234077a9b8cb13047a600454604051611e73919061240e565b60405180910390a2565b60008115159050919050565b611e9281611e7d565b82525050565b6000602082019050611ead6000830184611e89565b92915050565b6000604051905090565b600080fd5b600080fd5b600080fd5b600080fd5b6000601f19601f8301169050919050565b7f4e487b7100000000000000000000000000000000000000000000000000000000600052604160045260246000fd5b611f1a82611ed1565b810181811067ffffffffffffffff82111715611f3957611f38611ee2565b5b80604052505050565b6000611f4c611eb3565b9050611f588282611f11565b919050565b600067ffffffffffffffff821115611f7857611f77611ee2565b5b611f8182611ed1565b9050602081019050919050565b82818337600083830152505050565b6000611fb0611fab84611f5d565b611f42565b905082815260208101848484011115611fcc57611fcb611ecc565b5b611fd7848285611f8e565b509392505050565b600082601f830112611ff457611ff3611ec7565b5b8135612004848260208601611f9d565b91505092915050565b60006020828403121561202357612022611ebd565b5b600082013567ffffffffffffffff81111561204157612040611ec2565b5b61204d84828501611fdf565b91505092915050565b7f4e487b7100000000000000000000000000000000000000000000000000000000600052602160045260246000fd5b6004811061209657612095612056565b5b50565b60008190506120a782612085565b919050565b60006120b782612099565b9050919050565b6120c7816120ac565b82525050565b60006020820190506120e260008301846120be565b92915050565b600073ffffffffffffffffffffffffffffffffffffffff82169050919050565b6000612113826120e8565b9050919050565b61212381612108565b82525050565b600060208201905061213e600083018461211a565b92915050565b6000819050919050565b61215781612144565b82525050565b6000602082019050612172600083018461214e565b92915050565b6000819050919050565b61218b81612178565b811461219657600080fd5b50565b6000813590506121a881612182565b92915050565b600080604083850312156121c5576121c4611ebd565b5b60006121d385828601612199565b925050602083013567ffffffffffffffff8111156121f4576121f3611ec2565b5b61220085828601611fdf565b9150509250929050565b600081519050919050565b600082825260208201905092915050565b60005b83811015612244578082015181840152602081019050612229565b60008484015250505050565b600061225b8261220a565b6122658185612215565b9350612275818560208601612226565b61227e81611ed1565b840191505092915050565b600060208201905081810360008301526122a38184612250565b905092915050565b60006080820190506122c06000830187611e89565b81810360208301526122d28186612250565b905081810360408301526122e68185612250565b90506122f5606083018461211a565b95945050505050565b61230781611e7d565b811461231257600080fd5b50565b600081359050612324816122fe565b92915050565b6000602082840312156123405761233f611ebd565b5b600061234e84828501612315565b91505092915050565b6000806040838503121561236e5761236d611ebd565b5b600083013567ffffffffffffffff81111561238c5761238b611ec2565b5b61239885828601611fdf565b925050602083013567ffffffffffffffff8111156123b9576123b8611ec2565b5b6123c585828601611fdf565b9150509250929050565b600060408201905081810360008301526123e98185612250565b90506123f8602083018461214e565b9392505050565b61240881612178565b82525050565b600060208201905061242360008301846123ff565b92915050565b600060408201905061243e60008301856123ff565b81810360208301526124508184612250565b90509392505050565b60006020828403121561246f5761246e611ebd565b5b600061247d84828501612199565b91505092915050565b6000819050919050565b60006124ab6124a66124a1846120e8565b612486565b6120e8565b9050919050565b60006124bd82612490565b9050919050565b60006124cf826124b2565b9050919050565b6124df816124c4565b82525050565b60006020820190506124fa60008301846124d6565b92915050565b7f4f6e6c7920667265656c616e6365722063616e2063616c6c207468697320667560008201527f6e6374696f6e2e00000000000000000000000000000000000000000000000000602082015250565b600061255c602783612215565b915061256782612500565b604082019050919050565b6000602082019050818103600083015261258b8161254f565b9050919050565b7f496e76616c69642073746174652e000000000000000000000000000000000000600082015250565b60006125c8600e83612215565b91506125d382612592565b602082019050919050565b600060208201905081810360008301526125f7816125bb565b9050919050565b7f5375626d697373696f6e20646561646c696e65207061737365642e0000000000600082015250565b6000612634601b83612215565b915061263f826125fe565b602082019050919050565b6000602082019050818103600083015261266381612627565b9050919050565b7f4e487b7100000000000000000000000000000000000000000000000000000000600052602260045260246000fd5b600060028204905060018216806126b157607f821691505b6020821081036126c4576126c361266a565b5b50919050565b60008190508160005260206000209050919050565b60006020601f8301049050919050565b600082821b905092915050565b60006008830261272c7fffffffffffffffffffffffffffffffffffffffffffffffffffffffffffffffff826126ef565b61273686836126ef565b95508019841693508086168417925050509392505050565b600061276961276461275f84612178565b612486565b612178565b9050919050565b6000819050919050565b6127838361274e565b61279761278f82612770565b8484546126fc565b825550505050565b600090565b6127ac61279f565b6127b781848461277a565b505050565b5b818110156127db576127d06000826127a4565b6001810190506127bd565b5050565b601f821115612820576127f1816126ca565b6127fa846126df565b81016020851015612809578190505b61281d612815856126df565b8301826127bc565b50505b505050565b600082821c905092915050565b600061284360001984600802612825565b1980831691505092915050565b600061285c8383612832565b9150826002028217905092915050565b6128758261220a565b67ffffffffffffffff81111561288e5761288d611ee2565b5b6128988254612699565b6128a38282856127df565b600060209050601f8311600181146128d657600084156128c4578287015190505b6128ce8582612850565b865550612936565b601f1984166128e4866126ca565b60005b8281101561290c578489015182556001820191506020850194506020810190506128e7565b868310156129295784890151612925601f891682612832565b8355505b6001600288020188555050505b505050505050565b600081905092915050565b60006129548261220a565b61295e818561293e565b935061296e818560208601612226565b80840191505092915050565b60006129868284612949565b915081905092915050565b600081519050919050565b600081905092915050565b60006129b282612991565b6129bc818561299c565b93506129cc818560208601612226565b80840191505092915050565b60006129e482846129a7565b915081905092915050565b6129f881612144565b8114612a0357600080fd5b50565b600081519050612a15816129ef565b92915050565b600060208284031215612a3157612a30611ebd565b5b6000612a3f84828501612a06565b91505092915050565b7f50726f6a656374206e6f7420636f6d706c65746564207965742e000000000000600082015250565b6000612a7e601a83612215565b9150612a8982612a48565b602082019050919050565b60006020820190508181036000830152612aad81612a71565b9050919050565b7f496e76616c696420726174696e672e0000000000000000000000000000000000600082015250565b6000612aea600f83612215565b9150612af582612ab4565b602082019050919050565b60006020820190508181036000830152612b1981612add565b9050919050565b7f4f6e6c7920636c69656e742063616e2063616c6c20746869732066756e63746960008201527f6f6e2e0000000000000000000000000000000000000000000000000000000000602082015250565b6000612b7c602383612215565b9150612b8782612b20565b604082019050919050565b60006020820190508181036000830152612bab81612b6f565b9050919050565b50565b6000612bc260008361293e565b9150612bcd82612bb2565b600082019050919050565b6000612be382612bb5565b9150819050919050565b60008154612bfa81612699565b612c04818661293e565b94506001821660008114612c1f5760018114612c3457612c67565b60ff1983168652811515820286019350612c67565b612c3d856126ca565b60005b83811015612c5f57815481890152600182019150602081019050612c40565b838801955050505b50505092915050565b6000612c7c8284612bed565b915081905092915050565b7f46696c65206e6f74207375626d69747465642e00000000000000000000000000600082015250565b6000612cbd601383612215565b9150612cc882612c87565b602082019050919050565b60006020820190508181036000830152612cec81612cb0565b9050919050565b7f4f6e6c7920617262697465722063616e2063616c6c20746869732066756e637460008201527f696f6e2e00000000000000000000000000000000000000000000000000000000602082015250565b6000612d4f602483612215565b9150612d5a82612cf3565b604082019050919050565b60006020820190508181036000830152612d7e81612d42565b9050919050565b7f4e6f2064697370757465207261697365642e0000000000000000000000000000600082015250565b6000612dbb601283612215565b9150612dc682612d85565b602082019050919050565b60006020820190508181036000830152612dea81612dae565b9050919050565b7f4469737075746520616c7265616479207265736f6c7665642e00000000000000600082015250565b6000612e27601983612215565b9150612e3282612df1565b602082019050919050565b60006020820190508181036000830152612e5681612e1a565b9050919050565b6000604082019050612e72600083018561211a565b612e7f60208301846123ff565b9392505050565b600081519050612e95816122fe565b92915050565b600060208284031215612eb157612eb0611ebd565b5b6000612ebf84828501612e86565b91505092915050565b7f4f6e6c7920636c69656e74206f7220667265656c616e6365722063616e20726160008201527f697365206120646973707574652e000000000000000000000000000000000000602082015250565b6000612f24602e83612215565b9150612f2f82612ec8565b604082019050919050565b60006020820190508181036000830152612f5381612f17565b9050919050565b7f446973707574652063616e206f6e6c792062652072616973656420616674657260008201527f20776f726b207375626d697373696f6e2e000000000000000000000000000000602082015250565b6000612fb6603183612215565b9150612fc182612f5a565b604082019050919050565b60006020820190508181036000830152612fe581612fa9565b9050919050565b7f4465706f73697420616d6f756e742073686f756c64206265206772656174657260008201527f207468616e207a65726f2e000000000000000000000000000000000000000000602082015250565b6000613048602b83612215565b915061305382612fec565b604082019050919050565b600060208201905081810360008301526130778161303b565b9050919050565b6000606082019050613093600083018661211a565b6130a0602083018561211a565b6130ad60408301846123ff565b949350505050565b7f4e487b7100000000000000000000000000000000000000000000000000000000600052601160045260246000fd5b60006130ef82612178565b91506130fa83612178565b9250828203905081811115613112576131116130b5565b5b92915050565b7f4e487b7100000000000000000000000000000000000000000000000000000000600052601260045260246000fd5b600061315282612178565b915061315d83612178565b92508261316d5761316c613118565b5b82820490509291505056fea2646970667358221220cc114ecaf7642d037ce411b9196555bc778cb3c3e9817817431d2886f06c516664736f6c63430008180033",
    "linkReferences": {},
    "deployedLinkReferences": {}
}